:020000040800F2
:10000000784F002031020008C50600088506000868
:10001000C1060008650500086B0C00080000000020
:100020000000000000000000000000004302000883
:100030006905000800000000470200085109000897
:100040004B0200084B0200084B0200084B0200085C
:100050004B0200084B0200084B0200084B0200084C
:100060004B0200084B0200084B0200084B0200083C
:100070004B0200084B0200084B0200084B0200082C
:100080004B0200084B0200084B0200084B0200081C
:100090004B0200084B0200084B0200084B0200080C
:1000A0004B0200084B0200084B0200084B020008FC
:1000B0004B0200084B0200084B0200084B020008EC
:1000C0004B0200084B0200084B0200084B020008DC
:1000D0004B020008C1090008490A00084B02000849
:1000E0004B0200084B0200084B02000800F002F827
:1000F00000F042F80AA090E8000C82448344AAF180
:100100000107DA4501D100F037F8AFF2090EBAE87D
:100110000F0013F0010F18BFFB1A43F0010318473B
:10012000881C0000A81C0000103A24BF78C878C1C1
:10013000FAD8520724BF30C830C144BF04680C60ED
:10014000704700000023002400250026103A28BF35
:1001500078C1FBD8520728BF30C148BF0B60704739
:10016000642900F0F180732900F099810020704724
:100170001FB51FBD10B510BD00F0C4F91146FFF743
:10018000F7FF00F0C3FD00F0E2F903B4FFF7F2FF60
:1001900003BC00F06CFD0000224B19680868B0E851
:1001A000F00F80F30988BFF36F8F4FF0000080F3EA
:1001B00011884EF00D0E70470000000006480068E0
:1001C000006880F3088862B661B6BFF34F8FBFF353
:1001D0006F8F00DF00BF00BF08ED00E0EFF3098084
:1001E000BFF36F8F0F4B1A6820E9F00F106008B54E
:1001F0004FF0BF0080F31188BFF34F8FBFF36F8FB5
:1002000001F094FB4FF0000080F31188BDE8084036
:1002100019680868B0E8F00F80F30988BFF36F8FA2
:10022000704700BF40000020EFF3058070470000DA
:100230000948804709480047FEE7FEE7FEE7FEE77A
:10024000FEE7FEE7FEE7FEE7FEE7FEE704480549B6
:10025000054A064B7047000061090008ED000008E0
:1002600078490020784F0020784B0020784B002000
:10027000704700000FB4044910B503AA029800F0BB
:1002800013F910BC5DF814FB380000202DE9F04193
:100290000E460446002020622046E168884730B3BD
:1002A000252805D0D4E901219047206A401CF2E7B7
:1002B000E168204600278847050018D0A5F14100D5
:1002C000192802D820354FF40067324629462046C7
:1002D0002760FFF745FF40B1012804D0F61D26F046
:1002E00007060836D8E7361DD6E72846DAE7206A3B
:1002F000BDE8F08170B50C460546012A05D0287886
:10030000800600D5EA69002302E0012305E05B1CBA
:10031000934202D2E05C0028F9D1A869E618C01A1D
:10032000A861286A184428622846AFF3008004E0D8
:10033000D5E9012114F8010B9047B442F8D32846BF
:10034000AFF3008070BD00002DE9F04106460024A7
:1003500010687529314616A510D0AFF3008000282B
:1003600002DA404213A507E031688A0701D512A5D9
:1003700002E0490704D511A5012401E0AFF3008094
:1003800000210A2206F1240709E0B0FBF2FCB0FBD1
:10039000F2F302FB1C00303078541846491C002848
:1003A000F3D123462A463046BDE8F04100F00CB8B0
:1003B000000000002D0000002B00000020000000C5
:1003C00070477047704770472DE9F0470D469946D2
:1003D0009246044600F124080168880604D5E069C5
:1003E00021F01001216000E00120A84201DD471B3F
:1003F00000E00027A1697A1902EB0900081AA06140
:100400002078C00602D42046AFF30080002608E022
:10041000D4E901211AF806009047206A401C761C96
:1004200020624E45F4DB2078C0060AD52046AFF3A3
:10043000008006E0D4E9012130209047206A401C6A
:100440002062381EA7F10107F4DC07E0D4E901219E
:1004500018F805009047206A401C2062281EA5F16C
:100460000105F3DC2046AFF300802078000602D5BA
:100470000220BDE8F0870120FBE710B5436913B106
:10048000AFF3008001E0FFF735FF012010BD1278C7
:1004900000F124010A7000224A700122EDE7116880
:1004A0004FF0FF32E9E70000074B70B50D467B4483
:1004B00000F011F80446284600F020F810B14FF083
:1004C000FF3070BD204670BD1F08000001694A1C46
:1004D00002610878704700B58FB0CDE90131002185
:1004E000059105497944CDE9031011466846FFF7A7
:1004F000CDFE0FB000BD0000E5FFFFFF007B00F068
:1005000080007047754600F029F8AE460500694640
:10051000534620F00700854618B020B5FFF796FE39
:10052000BDE820404FF000064FF000074FF00008F4
:100530004FF0000B21F00701AC46ACE8C009ACE875
:10054000C009ACE8C009ACE8C0098D467047044654
:10055000AFF300802046FFF718FE00000048704708
:100560001449002000BFFEE770472DE9F041024624
:1005700000250026002000230024002791F803C056
:100580000CF00F0591F803C00CF0100CBCF1000F3B
:1005900003D091F802C04CEA050591F800C0BCF107
:1005A000000F31D0146800202BE04FF0010C0CFA42
:1005B00000F3B1F800C00CEA03069E4220D183008C
:1005C0004FF00F0C0CFA03F7BC4305FA03FC4CEA9E
:1005D000040491F803C0BCF1280F06D14FF0010CC0
:1005E0000CFA00FCC2F814C00AE091F803C0BCF198
:1005F000480F05D14FF0010C0CFA00FCC2F810C0F6
:10060000401C0828D1D31460B1F800C0BCF1FF0F22
:1006100034DD546800202EE000F1080C4FF0010892
:1006200008FA0CF3B1F800C00CEA03069E4221D18F
:1006300083004FF00F0C0CFA03F7BC4305FA03FCE0
:100640004CEA040491F803C0BCF1280F05D100F175
:10065000080C08FA0CF8C2F8148091F803C0BCF139
:10066000480F07D100F1080C4FF0010808FA0CF808
:10067000C2F81080401C0828CED35460BDE8F08139
:100680000161704700BFFEE708B50121102000F0AE
:100690005DF84FF40050ADF8000010208DF8030015
:1006A00003208DF8020069460448FFF75EFF4FF40F
:1006B00000510248FFF7E4FF08BD000000100140B0
:1006C00000BFFEE77047000070B5002100230F2235
:1006D000C47804B3154C246804F4E064C4F5E06401
:1006E000210AC1F10403CA40447804FA03F1847872
:1006F0001440214309010E4C0678A155047804F0FA
:100700001F050124AC4005786D11AD0005F1E02511
:10071000C5F8004109E0047804F01F050124AC404D
:10072000044D0678761145F8264070BD0CED00E0CA
:1007300000E400E080E100E002490143024A116068
:10074000704700000000FA050CED00E029B1064AF0
:1007500092690243044B9A6104E0034A926982431E
:10076000014B9A61704700000010024030B5002133
:100770000022002400232D4D6D6805F00C0121B1ED
:10078000042905D0082923D105E0294D056022E080
:10079000274D05601FE0254D6D6805F47012234D4F
:1007A0006D6805F48034022505EB92421CB9214D99
:1007B000554305600BE01D4D6D6805F400351DB116
:1007C0001C4D5543056002E0194D5543056002E09C
:1007D000174D056000BF00BF144D6D6805F0F001B6
:1007E0000909154D6B5C0568DD4045600F4D6D686E
:1007F00005F4E061090A104D6B5C4568DD408560D9
:100800000A4D6D6805F46051C90A0B4D6B5C456873
:10081000DD40C560054D6D6805F44041890B074D0D
:100820006B5CC568B5FBF3F5056130BD0010024097
:1008300000127A0000093D00200000203000002056
:1008400010B500F001F810BD0CB50020019000902B
:100850003348006840F480303149086000BF3048B8
:10086000006800F4003000900198401C019000984E
:1008700018B90198B0F5A06FF1D12948006800F4CB
:10088000003010B10120009001E00020009000989D
:10089000012843D12348006840F010002149086036
:1008A0000846006820F0030008600846006840F031
:1008B000020008601A4840681949486008464068C4
:1008C00048600846406840F48060486008464068D8
:1008D00020F47C1048600846406840F4E810486006
:1008E0000846006840F08070086000BF0C4800684F
:1008F00000F000700028F9D00948406820F003009B
:10090000074948600846406840F00200486000BF60
:100910000348406800F00C000828F9D10CBD000025
:100920000010024000200240042808D14FF0E021CE
:10093000096941F004014FF0E022116107E04FF036
:10094000E021096921F004014FF0E02211617047B4
:1009500010B501F0D9F8012801D001F08BF810BDD5
:1009600010B51348006840F00100114908600846BE
:100970004068104908400E494860084600680E4922
:1009800008400B4908600846006820F48020086091
:100990000846406820F4FE0048604FF41F0088605D
:1009A000FFF74EFF4FF000600449086010BD0000E3
:1009B000001002400000FFF8FFFFF6FE08ED00E027
:1009C00010B540F225511D4800F08EF810B31B48B9
:1009D00000F046F9C4B21A48008800F40040C8B9D3
:1009E0001748008800F4804060B10A2C03D0002032
:1009F0001349088020E01248008840F40040104964
:100A0000088019E00D2C06D10D48008840F4804084
:100A10000B49088010E00A480088C0F30D0009491E
:100A20000C5407480088401C054908800846008887
:100A3000C72801DD0020088010BD000000380140FB
:100A40003C000020A000002010B540F225511D48B8
:100A500000F04AF810B31B4800F002F9C4B21A487B
:100A6000008800F40040C8B91748008800F48040AE
:100A700060B10A2C03D000201349088020E01248FE
:100A8000008840F400401049088019E00D2C06D180
:100A90000D48008840F480400B49088010E00A4867
:100AA0000088C0F30D0009490C5407480088401C19
:100AB0000549088008460088C72801DD0020088015
:100AC00010BD0000004400403E00002068010020EE
:100AD00021B1828942F40052828104E082894DF67C
:100AE000FF731A408281704770B5024600240023CC
:100AF0000025002040F66A16B14200D100BFC1F3C4
:100B0000421501F01F03012606FA03F3012D02D15D
:100B10009689334006E0022D02D1168A334001E067
:100B2000968A33400C12012606FA04F416883440E3
:100B300013B10CB1012000E0002070BDF0B50346F8
:100B4000002400260025002040F66A17B94200D193
:100B500000BF1846C1F3421401F01F06012707FA2F
:100B600006F5012C01D10C3004E0022C01D110302B
:100B700000E014301AB107682F43076002E00768ED
:100B8000AF430760F0BD00002DE9F04786B0054691
:100B90000E460024A24600BFA1460027B08900B13E
:100BA00000BF2F462C8A4CF6FF700440F0880443A7
:100BB0002C82AC894EF6F3100440B088318908438A
:100BC000718908430443AC81AC8A4FF6FF4004406E
:100BD000B0890443AC8201A8FFF7C8FD1F488742D3
:100BE00002D1DDF810A001E0DDF80CA0A88900F426
:100BF000004040B10AEBCA0000EB0A10316849001E
:100C0000B0FBF1F807E00AEBCA0000EB0A1031680C
:100C10008900B0FBF1F86420B8FBF0F00401200972
:100C2000642101FB1089A88900F4004040B1322002
:100C300000EBC900B0FBF1F000F00700044308E04E
:100C4000322000EB09106421B0FBF1F000F00F003E
:100C500004432C8106B0BDE8F08700000038014055
:100C600001468888C0F30800704700BFFEE700BF58
:100C70007047000010B50420FFF756FE10480068CA
:100C80001049B0FBF1F0104908700D4800680D499B
:100C9000B0FBF1F44FF47A70444301200B49088013
:100CA0004FF0E020006940F002004FF0E0210861C1
:100CB00008464461006940F00100086110BD000071
:100CC0000C00002040420F003400002036000020BD
:100CD00000BF054A128802F04002002AF9D0C2B2D1
:100CE000014B1B1D1A807047003801400AE006487E
:100CF000006808B9012000E0002003490860C8200E
:100D000000F0FAFCF3E70000B40122421CB54FF4F6
:100D10004070FFF711FDFFF7ADFF4FF4E13000F039
:100D20006FFBFFF7B1FC0748012100238022CDE9CA
:100D3000001005A1074800F0B7FE00F09DFD00205F
:100D40001CBD00000000002073746172745F746148
:100D5000736B00006D1300082DE9F04105460E4647
:100D60001C4807681C480068001D00F099FB50B93A
:100D70001948006890F82C1001208840174909682C
:100D8000814316480160681C38B936B112480168C1
:100D9000091D134800F0C2FB1AE07C190E480068D8
:100DA0004460BC4207D20C480168091D0D48006828
:100DB00000F09AFB0CE008480168091D0A48006829
:100DC00000F092FB09480068844201D207480460A1
:100DD000BDE8F081540000204000002058000020B1
:100DE0000005002048000020440000207000002082
:100DF00010B5044600F09EFB23480068401C2249C1
:100E000008602248006840B920480460084600682D
:100E100001280DD100F034F90AE01D48006838B906
:100E20001A480068C06AE16A884201D8174804601D
:100E300018480068401C1749086094F82C100120DD
:100E4000884015490968084313490860E16A01EBC5
:100E50008101124A02EB8100211D00F05FFB00F0CE
:100E6000ADFB0B48006868B108480068C06AE16AD9
:100E7000884207D24FF0805009490860BFF34F8F76
:100E8000BFF36F8F10BD0000500000204000002015
:100E90005C0000206C000020580000203002002080
:100EA00004ED00E070B523E000F038FD1348006861
:100EB00008B9012000E00020054600F0E5FEBDB9BC
:100EC00000F038FB0D48C068C468201D00F0E8FA47
:100ED0000B480068401E0A4908600A480068401E26
:100EE0000849086000F06AFB204600F00DF800BFDA
:100EF000044800680028D7D170BD0000EC04002031
:100F0000500000204C00002010B50446206B00F07B
:100F10008DFB204600F08AFB10BD000030B54FF479
:100F20008843174800F007042CB1C01D20F00700CB
:100F3000134C041B1B1B0246124C22600024114D53
:100F40006C60D018083820F007000F4C2060002497
:100F50000D4D2D686C600C4D2D682C601146441AA7
:100F60004C60094C24680C60084D4C682C60084D9E
:100F70004C682C604FF00044064D2C6030BD0000E2
:100F8000140500207C000020840000208C0000203C
:100F9000880000209000002000BFFFF783FF064874
:100FA00000680128F9D94FF0805004490860BFF368
:100FB0004F8FBFF36F8FF0E73002002004ED00E0A9
:100FC0002DE9FF5F81460E469246DDE90E7B109CBF
:100FD000AAF10100216B01EB800828F0070808F056
:100FE000070008B9012000E0002028B940F22B32A8
:100FF0001AA11FA0FFF73EF9002507E0715D04F17B
:1010000034004155705D00B902E06D1C102DF5D320
:1010100000BF002143200155202F00D31F27E76286
:10102000201D00F05EFA04F1180000F05AFA246165
:10103000C7F12000A06164620020606484F8480069
:1010400049464046039A00F07FF92060BBF1000F4B
:1010500001D0CBF80040BDE8FF9F00002E2E5C467B
:1010600072656552544F535C7461736B732E6300E9
:101070004572726F723A25732C25640D0A000000C8
:1010800010B5002407E004EB84010F4A02EB810055
:1010900000F01AFA641C202CF5D30C4800F014FA66
:1010A0000B4800F011FA0B4800F00EFA0A4800F065
:1010B0000BFA0A4800F008FA044809490860044895
:1010C0000849086010BD000030020020B004002074
:1010D000C4040020D8040020EC04002000050020F7
:1010E000440000204800002010B50146164800E0EA
:1010F000006803688B42FBD30246436813448B426B
:1011000004D143684C682344436001460A464B6857
:1011100013440468A34211D10C4C03682468A34211
:1011200008D04B680468646823444B6003681B68FC
:101130000B6005E0054B1B680B6001E003680B606A
:10114000884200D0016010BD7C0000208400002097
:101150000A490968096809B9012100E0002121B1A3
:101160004FF0FF31064A116006E004490968C9687A
:10117000C868034A416811607047000044000020BD
:10118000700000200B480068401C08B9012000E0F6
:10119000002020B9F42208A112A0FFF76BF800BFCD
:1011A000BF2080F31188BFF34F8FBFF36F8F00BF55
:1011B00000BFFEE7940000202E2E5C46726565524B
:1011C000544F535C706F727461626C655C5256442C
:1011D000535C41524D5F434D335C706F72742E63AC
:1011E000000000004572726F723A25732C25640D61
:1011F0000A0000002DE9F04104464FF0000800F01D
:101200008DFB3E48006808B9FFF788FE3C4800683F
:10121000204000285FD1A4B1083404F0070080B159
:1012200004F00700C0F10800044404F0070008B906
:10123000012000E0002020B9BF2232A13BA0FFF72F
:1012400019F8002C47D03D480068844243D83C4EF2
:101250003046056801E02E462D686868A04202D23B
:1012600028680028F7D125480068854233D03068C7
:1012700000F10808286830606868001B102813D93E
:101280002F1907F0070008B9012000E0002020B95D
:10129000EC221CA125A0FEF7EDFF6868001B78601A
:1012A0006C603846FFF720FF244968680968081A0F
:1012B000224908600846006822490968884203D22A
:1012C0001E4800681F4908600D496868096808439E
:1012D00068600020286000F0D7FC08F0070008B91B
:1012E000012000E0002028B94FF4967205A10FA05C
:1012F000FEF7C0FF4046BDE8F081000084000020FA
:10130000900000202E2E5C4672656552544F535C4F
:10131000706F727461626C655C4D656D4D616E6776
:101320005C686561705F342E630000004572726F07
:10133000723A25732C25640D0A00000088000020F5
:101340007C0000208C000020001F4FF080730360A1
:10135000001F21F001030360001F034B03601438DA
:101360000260203870470000851100081CB5044653
:1013700000F0E0F80D48022100233222CDE90010F0
:101380000BA10E4800F090FB0D48032100233222F0
:10139000CDE900100BA10E4800F086FB0D48006857
:1013A00000F0E4F900F00AF91CBD00000400002080
:1013B0006C65645F7461736B00000000ED0C0008E5
:1013C0000800002074696D655F7461736B00000034
:1013D000D913000800000020002407E04FF47A70C1
:1013E00000F08AF9214602A0FEF744FFF6E700006C
:1013F000D4CBD0D0CAB1BCE43A202564730A000033
:1014000010B586B00446012144F20400FFF79EF9AE
:101410004FF40070ADF8140003208DF8160018206A
:101420008DF8170005A91C48FFF79FF84FF480605E
:10143000ADF8140004208DF8170005A91648FFF731
:1014400094F825208DF8000003208DF801008DF818
:10145000020001208DF803006846FFF735F901947A
:101460000020ADF80800ADF80A00ADF80C00ADF8AA
:1014700010000C20ADF80E0001A90848FFF784FB0E
:10148000012240F225510548FFF758FB012103488E
:10149000FFF71EFB06B010BD0008014000380140F8
:1014A00001460A69D1E901309860D1E90103586029
:1014B0005068884201D18868506000200861106837
:1014C000401E10601068704700F1080141604FF045
:1014D000FF31816000F10801C160016100210160FC
:1014E000704700210161704710B502460B685C1C13
:1014F0000CB9106907E002F1080000E04068446898
:1015000024689C42FAD944684C604C68A1608860A9
:1015100041600A611468641C146010BD42684A602E
:1015200093688B60936859609160086103685B1CE5
:101530000360704710B500BFBF2080F31188BFF370
:101540004F8FBFF36F8F00BF0B480068401C0A49E4
:1015500008600846006801280DD108480068C0B23C
:1015600008B9012000E0002028B94FF4BD7204A1A1
:101570000EA0FEF77FFE10BD9400002004ED00E0F9
:101580002E2E5C4672656552544F535C706F7274B8
:1015900061626C655C525644535C41524D5F434DF1
:1015A000335C706F72742E63000000004572726FBE
:1015B000723A25732C25640D0A00000010B50B4803
:1015C000006828B940F2811209A114A0FEF752FE6A
:1015D00006480068401E054908600846006820B9B2
:1015E000002080F3118800BF00BF10BD94000020D0
:1015F0002E2E5C4672656552544F535C706F727448
:1016000061626C655C525644535C41524D5F434D80
:10161000335C706F72742E63000000004572726F4D
:10162000723A25732C25640D0A00000070B5064639
:101630003546002E35D0083D2C461A4960680968A9
:10164000084008B1012000E0002028B94FF4A07242
:1016500015A11FA0FEF70EFE206808B9012000E0CA
:10166000002028B940F241120FA119A0FEF702FE96
:101670000C4960680968084098B1206888B9094930
:10168000606809688843606000F048F91449606840
:1016900009680844124908602046FFF725FD00F05C
:1016A000F3FA70BD900000202E2E5C4672656552E4
:1016B000544F535C706F727461626C655C4D656D04
:1016C0004D616E675C686561705F342E6300000079
:1016D0004572726F723A25732C25640D0A00000062
:1016E0008800002003484FF0E0214861072008618E
:1016F000704700003F19010070B504460025ACB1E9
:101700000F48006808B9012000E0002028B940F225
:10171000CF420CA110A0FEF7ADFD00F0FFF80021B4
:101720002046FFF719FB00F0AFFA05463DB94FF030
:1017300080500D490860BFF34F8FBFF36F8F70BDAE
:10174000780000202E2E5C4672656552544F535C23
:101750007461736B732E63004572726F723A2573F6
:101760002C25640D0A00000004ED00E070B505466C
:10177000FFF7E0FE15B92D48006800E02846044652
:10178000201DFFF78DFE78B9E06A00EB8000284944
:1017900051F8200040B994F82C10012088402549C8
:1017A0000968814323480160A06A18B104F1180058
:1017B000FFF776FE20480068401C1F4908601B4860
:1017C0000068844209D1211D1C48FFF7A7FE1C4870
:1017D0000068401C1A49086009E01A480068401E69
:1017E000184908602046FFF78FFBFFF7B1FCFFF7B1
:1017F000E5FE15480068C0B10C480068844214D169
:101800001248006808B9012000E0002028B940F221
:1018100065420FA113A0FEF72DFD4FF08050154932
:101820000860BFF34F8FBFF36F8F70BD4000002083
:1018300030020020580000206C000020EC04002042
:101840004C000020500000205C00002078000020A8
:101850002E2E5C4672656552544F535C7461736BF7
:10186000732E63004572726F723A25732C25640DD6
:101870000A00000004ED00E01CB5184800210B46EA
:101880008022CDE9001016A1174800F00DF904469A
:10189000012C15D100BFBF2080F31188BFF34F8FFB
:1018A000BFF36F8F00BF4FF0FF3010490860012079
:1018B0000F49086000200F49086000F08BF80BE02A
:1018C000601C08B1012000E0002028B940F28472B9
:1018D00009A10EA0FEF7CEFC1CBD00007400002084
:1018E00049444C4500000000990F0008700000209A
:1018F0005C000020540000202E2E5C46726565526C
:10190000544F535C7461736B732E63004572726F36
:10191000723A25732C25640D0A0000000248006805
:10192000401C0149086070477800002010B51B4832
:10193000006818B101201A4908602DE000201849FC
:10194000086018480068B0FA80F0C0F11F0404EB8A
:101950008400154951F8200008B1012000E0002062
:1019600028B940F6F62211A115A0FEF783FC04EB7E
:1019700084010D4A02EB810041684968416000F131
:10198000080142688A4202D1416849684160416861
:10199000C9680F4A116000BF10BD00007800002028
:1019A0006400002058000020300200202E2E5C46EB
:1019B00072656552544F535C7461736B732E630090
:1019C0004572726F723A25732C25640D0A0000006F
:1019D000400000201CB52248014609780191FF21F2
:1019E000024611700146097800919DF8001001F03F
:1019F000BF011C4A117007211B4A116009E01A49F6
:101A00000968491E184A11609DF800104906090E20
:101A100000919DF8001001F080018029EFD012495B
:101A200009680902104A11601146098801F4E06151
:101A300011600B4A019911700C48006840F47F0056
:101A40000A4908600846006840F07F400860FFF7D8
:101A500049FE002006490860FEF7B0FB00201CBDCF
:101A600000E400E0980000209C00002020ED00E051
:101A70009400002010B500BFBF2080F31188BFF391
:101A80004F8FBFF36F8F00BF00F04EF818B14FF0CB
:101A900080500449086000BF002080F3118800BF17
:101AA00010BD000004ED00E02DE9FF4F85B0804639
:101AB00089461746DDE912ABB800FFF79BFB0646E7
:101AC00056B14C20FFF796FB04460CB1266304E0A8
:101AD0003046FFF7ABFD00E000247CB10020CDE9EB
:101AE00000ABCDE902403A4649464046089BFFF725
:101AF00067FA2046FFF77CF9012501E04FF0FF353A
:101B0000284609B0BDE8F08F0549096809B90120E8
:101B100005E00449096809B9022000E00020704787
:101B20005C000020780000202DE9F0414FF0000813
:101B300041480068002872D140480068451C3F4871
:101B40000560EDB93E480068006808B9012000E072
:101B5000002028B940F6D9123AA13FA0FEF78AFB2F
:101B60003748076840480068354908603E480760C4
:101B70003E480068401C3D490860FFF7E9FA00BF95
:101B80003B48006885423CD300BF2D480068006890
:101B900008B9012000E0002020B14FF0FF303449A7
:101BA00008602DE026480068C068C4686668B542D1
:101BB00002D22F48066023E0201DFFF771FCA06AC7
:101BC00018B104F11800FFF76BFC94F82C100120F9
:101BD000884028490968084326490860E16A01EB02
:101BE0008101254A02EB8100211DFFF797FC234963
:101BF000E06A0968C96A8842C7D34FF00108C4E7A0
:101C000000BF1E480068C06A00EB80001A4951F806
:101C10002000012801D94FF0010805E0FFE718482E
:101C20000068401C164908601648006808B14FF06B
:101C300001084046BDE8F0817800002054000020F3
:101C4000440000202E2E5C4672656552544F535C52
:101C50007461736B732E63004572726F723A2573F1
:101C60002C25640D0A0000004800002068000020B8
:101C700070000020580000203002002040000020AA
:101C8000600000206400002070B500240026344865
:101C9000006828B94FF4FD6232A137A0FEF7EAFAD6
:101CA000FFF748FC2E480068401E2D490860084692
:101CB000006800284FD13448006800284BD024E049
:101CC0003248C068C46804F11800FFF7E9FB201D22
:101CD000FFF7E6FB94F82C10012088402C49096896
:101CE00008432B490860E16A01EB8101294A02EBB4
:101CF0008100211DFFF712FC2749E06A0968C96AC3
:101D0000884202D30120254908602048006808B9AC
:101D1000012000E000200028D2D00CB1FFF718FA13
:101D20001F48056865B100BFFFF7FEFE10B1012036
:101D30001A4908606D1E002DF6D100201849086070
:101D40001648006838B10126300716490860BFF30D
:101D50004F8FBFF36F8FFFF731FC304670BD00002F
:101D6000780000202E2E5C4672656552544F535CFD
:101D70007461736B732E63004572726F723A2573D0
:101D80002C25640D0A00000050000020D80400201B
:101D90005800002030020020400000206400002095
:101DA0006000002004ED00E0C81D000800000020D5
:101DB000A000000028010008681E0008A000002004
:101DC000D84E0000440100080000000000000000A0
:101DD0000000000000A24A04000000000000000013
:101DE00001020304060708090000000001020304C1
:101DF00001020304060708090204060800000000A7
:101E000000000000000000000000000000000000D2
:101E100000000000000000000000000000000000C2
:101E200000000000000000000000000000000000B2
:101E300000000000000000000000000000000000A2
:101E40000000000000000000000000000000000092
:101E5000000000000000000000000000AAAAAAAADA
:081E600000000000000000007A
:04000005080000ED02
:00000001FF
